{
  "_format": "hh-sol-artifact-1",
  "contractName": "Marketplace",
  "sourceName": "contracts/Marketplace.sol",
  "abi": [
    {
      "inputs": [],
      "stateMutability": "nonpayable",
      "type": "constructor"
    },
    {
      "anonymous": false,
      "inputs": [
        {
          "indexed": true,
          "internalType": "address",
          "name": "owner",
          "type": "address"
        },
        {
          "indexed": true,
          "internalType": "address",
          "name": "approved",
          "type": "address"
        },
        {
          "indexed": true,
          "internalType": "uint256",
          "name": "tokenId",
          "type": "uint256"
        }
      ],
      "name": "Approval",
      "type": "event"
    },
    {
      "anonymous": false,
      "inputs": [
        {
          "indexed": true,
          "internalType": "address",
          "name": "owner",
          "type": "address"
        },
        {
          "indexed": true,
          "internalType": "address",
          "name": "operator",
          "type": "address"
        },
        {
          "indexed": false,
          "internalType": "bool",
          "name": "approved",
          "type": "bool"
        }
      ],
      "name": "ApprovalForAll",
      "type": "event"
    },
    {
      "anonymous": false,
      "inputs": [
        {
          "indexed": false,
          "internalType": "address",
          "name": "sender",
          "type": "address"
        },
        {
          "indexed": false,
          "internalType": "uint256",
          "name": "tokenId",
          "type": "uint256"
        },
        {
          "indexed": false,
          "internalType": "uint256",
          "name": "likes",
          "type": "uint256"
        },
        {
          "indexed": false,
          "internalType": "bool",
          "name": "isLiked",
          "type": "bool"
        }
      ],
      "name": "NewLike",
      "type": "event"
    },
    {
      "anonymous": false,
      "inputs": [
        {
          "indexed": false,
          "internalType": "address",
          "name": "sender",
          "type": "address"
        },
        {
          "indexed": false,
          "internalType": "uint256",
          "name": "tokenId",
          "type": "uint256"
        },
        {
          "indexed": false,
          "internalType": "uint256",
          "name": "likes",
          "type": "uint256"
        },
        {
          "indexed": false,
          "internalType": "bool",
          "name": "isLiked",
          "type": "bool"
        }
      ],
      "name": "NewNFTMinted",
      "type": "event"
    },
    {
      "anonymous": false,
      "inputs": [
        {
          "indexed": true,
          "internalType": "address",
          "name": "from",
          "type": "address"
        },
        {
          "indexed": true,
          "internalType": "address",
          "name": "to",
          "type": "address"
        },
        {
          "indexed": true,
          "internalType": "uint256",
          "name": "tokenId",
          "type": "uint256"
        }
      ],
      "name": "Transfer",
      "type": "event"
    },
    {
      "inputs": [
        {
          "internalType": "address",
          "name": "to",
          "type": "address"
        },
        {
          "internalType": "uint256",
          "name": "tokenId",
          "type": "uint256"
        }
      ],
      "name": "approve",
      "outputs": [],
      "stateMutability": "nonpayable",
      "type": "function"
    },
    {
      "inputs": [
        {
          "internalType": "address",
          "name": "owner",
          "type": "address"
        }
      ],
      "name": "balanceOf",
      "outputs": [
        {
          "internalType": "uint256",
          "name": "",
          "type": "uint256"
        }
      ],
      "stateMutability": "view",
      "type": "function"
    },
    {
      "inputs": [
        {
          "internalType": "uint256",
          "name": "tokenId",
          "type": "uint256"
        }
      ],
      "name": "getApproved",
      "outputs": [
        {
          "internalType": "address",
          "name": "",
          "type": "address"
        }
      ],
      "stateMutability": "view",
      "type": "function"
    },
    {
      "inputs": [
        {
          "internalType": "address",
          "name": "owner",
          "type": "address"
        },
        {
          "internalType": "address",
          "name": "operator",
          "type": "address"
        }
      ],
      "name": "isApprovedForAll",
      "outputs": [
        {
          "internalType": "bool",
          "name": "",
          "type": "bool"
        }
      ],
      "stateMutability": "view",
      "type": "function"
    },
    {
      "inputs": [
        {
          "internalType": "uint256",
          "name": "tokenId",
          "type": "uint256"
        }
      ],
      "name": "like",
      "outputs": [],
      "stateMutability": "nonpayable",
      "type": "function"
    },
    {
      "inputs": [
        {
          "internalType": "string",
          "name": "name",
          "type": "string"
        },
        {
          "internalType": "string",
          "name": "imageURI",
          "type": "string"
        },
        {
          "internalType": "string",
          "name": "description",
          "type": "string"
        }
      ],
      "name": "mintNFT",
      "outputs": [],
      "stateMutability": "nonpayable",
      "type": "function"
    },
    {
      "inputs": [],
      "name": "name",
      "outputs": [
        {
          "internalType": "string",
          "name": "",
          "type": "string"
        }
      ],
      "stateMutability": "view",
      "type": "function"
    },
    {
      "inputs": [
        {
          "internalType": "uint256",
          "name": "tokenId",
          "type": "uint256"
        }
      ],
      "name": "ownerOf",
      "outputs": [
        {
          "internalType": "address",
          "name": "",
          "type": "address"
        }
      ],
      "stateMutability": "view",
      "type": "function"
    },
    {
      "inputs": [
        {
          "internalType": "address",
          "name": "from",
          "type": "address"
        },
        {
          "internalType": "address",
          "name": "to",
          "type": "address"
        },
        {
          "internalType": "uint256",
          "name": "tokenId",
          "type": "uint256"
        }
      ],
      "name": "safeTransferFrom",
      "outputs": [],
      "stateMutability": "nonpayable",
      "type": "function"
    },
    {
      "inputs": [
        {
          "internalType": "address",
          "name": "from",
          "type": "address"
        },
        {
          "internalType": "address",
          "name": "to",
          "type": "address"
        },
        {
          "internalType": "uint256",
          "name": "tokenId",
          "type": "uint256"
        },
        {
          "internalType": "bytes",
          "name": "data",
          "type": "bytes"
        }
      ],
      "name": "safeTransferFrom",
      "outputs": [],
      "stateMutability": "nonpayable",
      "type": "function"
    },
    {
      "inputs": [
        {
          "internalType": "address",
          "name": "operator",
          "type": "address"
        },
        {
          "internalType": "bool",
          "name": "approved",
          "type": "bool"
        }
      ],
      "name": "setApprovalForAll",
      "outputs": [],
      "stateMutability": "nonpayable",
      "type": "function"
    },
    {
      "inputs": [
        {
          "internalType": "bytes4",
          "name": "interfaceId",
          "type": "bytes4"
        }
      ],
      "name": "supportsInterface",
      "outputs": [
        {
          "internalType": "bool",
          "name": "",
          "type": "bool"
        }
      ],
      "stateMutability": "view",
      "type": "function"
    },
    {
      "inputs": [],
      "name": "symbol",
      "outputs": [
        {
          "internalType": "string",
          "name": "",
          "type": "string"
        }
      ],
      "stateMutability": "view",
      "type": "function"
    },
    {
      "inputs": [
        {
          "internalType": "uint256",
          "name": "_tokenId",
          "type": "uint256"
        }
      ],
      "name": "tokenURI",
      "outputs": [
        {
          "internalType": "string",
          "name": "",
          "type": "string"
        }
      ],
      "stateMutability": "view",
      "type": "function"
    },
    {
      "inputs": [
        {
          "internalType": "address",
          "name": "from",
          "type": "address"
        },
        {
          "internalType": "address",
          "name": "to",
          "type": "address"
        },
        {
          "internalType": "uint256",
          "name": "tokenId",
          "type": "uint256"
        }
      ],
      "name": "transferFrom",
      "outputs": [],
      "stateMutability": "nonpayable",
      "type": "function"
    },
    {
      "inputs": [
        {
          "internalType": "address",
          "name": "",
          "type": "address"
        },
        {
          "internalType": "uint256",
          "name": "",
          "type": "uint256"
        }
      ],
      "name": "useToLikedList",
      "outputs": [
        {
          "internalType": "uint256",
          "name": "",
          "type": "uint256"
        }
      ],
      "stateMutability": "view",
      "type": "function"
    }
  ],
  "bytecode": "0x60806040523480156200001157600080fd5b506040518060400160405280600e81526020017f4e4654436f6c6c656374696f6e730000000000000000000000000000000000008152506040518060400160405280600381526020017f6e66740000000000000000000000000000000000000000000000000000000000815250816000908051906020019062000096929190620001cf565b508060019080519060200190620000af929190620001cf565b505050620000fd6040518060400160405280601881526020017f4e465420436f6c6c656374696f6e7320436f6e747261637400000000000000008152506200010360201b620010721760201c565b620003ac565b620001a3816040516024016200011a919062000323565b6040516020818303038152906040527f41304fac000000000000000000000000000000000000000000000000000000007bffffffffffffffffffffffffffffffffffffffffffffffffffffffff19166020820180517bffffffffffffffffffffffffffffffffffffffffffffffffffffffff8381831617835250505050620001a660201b60201c565b50565b60008151905060006a636f6e736f6c652e6c6f679050602083016000808483855afa5050505050565b828054620001dd9062000376565b90600052602060002090601f0160209004810192826200020157600085556200024d565b82601f106200021c57805160ff19168380011785556200024d565b828001600101855582156200024d579182015b828111156200024c5782518255916020019190600101906200022f565b5b5090506200025c919062000260565b5090565b5b808211156200027b57600081600090555060010162000261565b5090565b600081519050919050565b600082825260208201905092915050565b60005b83811015620002bb5780820151818401526020810190506200029e565b83811115620002cb576000848401525b50505050565b6000601f19601f8301169050919050565b6000620002ef826200027f565b620002fb81856200028a565b93506200030d8185602086016200029b565b6200031881620002d1565b840191505092915050565b600060208201905081810360008301526200033f8184620002e2565b905092915050565b7f4e487b7100000000000000000000000000000000000000000000000000000000600052602260045260246000fd5b600060028204905060018216806200038f57607f821691505b60208210811415620003a657620003a562000347565b5b50919050565b61385180620003bc6000396000f3fe608060405234801561001057600080fd5b50600436106101005760003560e01c806369cf2b6311610097578063b88d4fde11610066578063b88d4fde146102bd578063c87b56dd146102d9578063e82935da14610309578063e985e9c51461032557610100565b806369cf2b631461022357806370a082311461025357806395d89b4114610283578063a22cb465146102a157610100565b80630c3b7b72116100d35780630c3b7b721461019f57806323b872dd146101bb57806342842e0e146101d75780636352211e146101f357610100565b806301ffc9a71461010557806306fdde0314610135578063081812fc14610153578063095ea7b314610183575b600080fd5b61011f600480360381019061011a9190612392565b610355565b60405161012c91906123da565b60405180910390f35b61013d610437565b60405161014a919061248e565b60405180910390f35b61016d600480360381019061016891906124e6565b6104c9565b60405161017a9190612554565b60405180910390f35b61019d6004803603810190610198919061259b565b61050f565b005b6101b960048036038101906101b49190612710565b610627565b005b6101d560048036038101906101d091906127b7565b610789565b005b6101f160048036038101906101ec91906127b7565b6107e9565b005b61020d600480360381019061020891906124e6565b610809565b60405161021a9190612554565b60405180910390f35b61023d6004803603810190610238919061259b565b610890565b60405161024a9190612819565b60405180910390f35b61026d60048036038101906102689190612834565b6108c1565b60405161027a9190612819565b60405180910390f35b61028b610979565b604051610298919061248e565b60405180910390f35b6102bb60048036038101906102b6919061288d565b610a0b565b005b6102d760048036038101906102d2919061296e565b610a21565b005b6102f360048036038101906102ee91906124e6565b610a83565b604051610300919061248e565b60405180910390f35b610323600480360381019061031e91906124e6565b610b59565b005b61033f600480360381019061033a91906129f1565b610fde565b60405161034c91906123da565b60405180910390f35b60007f80ac58cd000000000000000000000000000000000000000000000000000000007bffffffffffffffffffffffffffffffffffffffffffffffffffffffff1916827bffffffffffffffffffffffffffffffffffffffffffffffffffffffff1916148061042057507f5b5e139f000000000000000000000000000000000000000000000000000000007bffffffffffffffffffffffffffffffffffffffffffffffffffffffff1916827bffffffffffffffffffffffffffffffffffffffffffffffffffffffff1916145b80610430575061042f8261110b565b5b9050919050565b60606000805461044690612a60565b80601f016020809104026020016040519081016040528092919081815260200182805461047290612a60565b80156104bf5780601f10610494576101008083540402835291602001916104bf565b820191906000526020600020905b8154815290600101906020018083116104a257829003601f168201915b5050505050905090565b60006104d482611175565b6004600083815260200190815260200160002060009054906101000a900473ffffffffffffffffffffffffffffffffffffffff169050919050565b600061051a82610809565b90508073ffffffffffffffffffffffffffffffffffffffff168373ffffffffffffffffffffffffffffffffffffffff16141561058b576040517f08c379a000000000000000000000000000000000000000000000000000000000815260040161058290612b04565b60405180910390fd5b8073ffffffffffffffffffffffffffffffffffffffff166105aa6111c0565b73ffffffffffffffffffffffffffffffffffffffff1614806105d957506105d8816105d36111c0565b610fde565b5b610618576040517f08c379a000000000000000000000000000000000000000000000000000000000815260040161060f90612b96565b60405180910390fd5b61062283836111c8565b505050565b60006106336008611281565b905061063f338261128f565b60066040518060a001604052808681526020018581526020018481526020016000815260200160001515815250908060018154018082558091505060019003906000526020600020906005020160009091909190915060008201518160000190805190602001906106b1929190612283565b5060208201518160010190805190602001906106ce929190612283565b5060408201518160020190805190602001906106eb929190612283565b506060820151816003015560808201518160040160006101000a81548160ff021916908315150217905550505061073b6040518060600160405280602581526020016137b76025913982336112ad565b610745600861134c565b7fa082d4929c033482a6db882e29e3b5baebf5c4e5aa904de49f624c7f6b6d9767338260008060405161077b9493929190612bfb565b60405180910390a150505050565b61079a6107946111c0565b82611362565b6107d9576040517f08c379a00000000000000000000000000000000000000000000000000000000081526004016107d090612cb2565b60405180910390fd5b6107e48383836113f7565b505050565b61080483838360405180602001604052806000815250610a21565b505050565b600080610815836116f1565b9050600073ffffffffffffffffffffffffffffffffffffffff168173ffffffffffffffffffffffffffffffffffffffff161415610887576040517f08c379a000000000000000000000000000000000000000000000000000000000815260040161087e90612d1e565b60405180910390fd5b80915050919050565b600760205281600052604060002081815481106108ac57600080fd5b90600052602060002001600091509150505481565b60008073ffffffffffffffffffffffffffffffffffffffff168273ffffffffffffffffffffffffffffffffffffffff161415610932576040517f08c379a000000000000000000000000000000000000000000000000000000000815260040161092990612db0565b60405180910390fd5b600360008373ffffffffffffffffffffffffffffffffffffffff1673ffffffffffffffffffffffffffffffffffffffff168152602001908152602001600020549050919050565b60606001805461098890612a60565b80601f01602080910402602001604051908101604052809291908181526020018280546109b490612a60565b8015610a015780601f106109d657610100808354040283529160200191610a01565b820191906000526020600020905b8154815290600101906020018083116109e457829003601f168201915b5050505050905090565b610a1d610a166111c0565b838361172e565b5050565b610a32610a2c6111c0565b83611362565b610a71576040517f08c379a0000000000000000000000000000000000000000000000000000000008152600401610a6890612cb2565b60405180910390fd5b610a7d8484848461189b565b50505050565b60606000610b2960068481548110610a9e57610a9d612dd0565b5b9060005260206000209060050201600001610ab8856118f7565b60068681548110610acc57610acb612dd0565b5b906000526020600020906005020160020160068781548110610af157610af0612dd0565b5b9060005260206000209060050201600101604051602001610b15949392919061304b565b6040516020818303038152906040526119cf565b9050600081604051602001610b3e919061310c565b60405160208183030381529060405290508092505050919050565b60005b600760003373ffffffffffffffffffffffffffffffffffffffff1673ffffffffffffffffffffffffffffffffffffffff16815260200190815260200160002080549050811015610c5d576000600760003373ffffffffffffffffffffffffffffffffffffffff1673ffffffffffffffffffffffffffffffffffffffff1681526020019081526020016000208281548110610bf957610bf8612dd0565b5b9060005260206000200154905082811415610c49576040517f08c379a0000000000000000000000000000000000000000000000000000000008152600401610c409061317a565b60405180910390fd5b508080610c55906131c9565b915050610b5c565b5060068181548110610c7257610c71612dd0565b5b90600052602060002090600502016003016000815480929190610c94906131c9565b9190505550600760003373ffffffffffffffffffffffffffffffffffffffff1673ffffffffffffffffffffffffffffffffffffffff16815260200190815260200160002081908060018154018082558091505060019003906000526020600020016000909190919091505560006006805480602002602001604051908101604052809291908181526020016000905b82821015610f3057838290600052602060002090600502016040518060a0016040529081600082018054610d5690612a60565b80601f0160208091040260200160405190810160405280929190818152602001828054610d8290612a60565b8015610dcf5780601f10610da457610100808354040283529160200191610dcf565b820191906000526020600020905b815481529060010190602001808311610db257829003601f168201915b50505050508152602001600182018054610de890612a60565b80601f0160208091040260200160405190810160405280929190818152602001828054610e1490612a60565b8015610e615780601f10610e3657610100808354040283529160200191610e61565b820191906000526020600020905b815481529060010190602001808311610e4457829003601f168201915b50505050508152602001600282018054610e7a90612a60565b80601f0160208091040260200160405190810160405280929190818152602001828054610ea690612a60565b8015610ef35780601f10610ec857610100808354040283529160200191610ef3565b820191906000526020600020905b815481529060010190602001808311610ed657829003601f168201915b50505050508152602001600382015481526020016004820160009054906101000a900460ff16151515158152505081526020019060010190610d23565b5050505090506001818381518110610f4b57610f4a612dd0565b5b602002602001015160800190151590811515815250507fb62aea7ecf0f4f0d25342fe3f267577ecb1538c3503bdd63086881c0e89bfad23383838581518110610f9757610f96612dd0565b5b602002602001015160600151848681518110610fb657610fb5612dd0565b5b602002602001015160800151604051610fd29493929190613212565b60405180910390a15050565b6000600560008473ffffffffffffffffffffffffffffffffffffffff1673ffffffffffffffffffffffffffffffffffffffff16815260200190815260200160002060008373ffffffffffffffffffffffffffffffffffffffff1673ffffffffffffffffffffffffffffffffffffffff16815260200190815260200160002060009054906101000a900460ff16905092915050565b61110881604051602401611086919061248e565b6040516020818303038152906040527f41304fac000000000000000000000000000000000000000000000000000000007bffffffffffffffffffffffffffffffffffffffffffffffffffffffff19166020820180517bffffffffffffffffffffffffffffffffffffffffffffffffffffffff8381831617835250505050611b67565b50565b60007f01ffc9a7000000000000000000000000000000000000000000000000000000007bffffffffffffffffffffffffffffffffffffffffffffffffffffffff1916827bffffffffffffffffffffffffffffffffffffffffffffffffffffffff1916149050919050565b61117e81611b90565b6111bd576040517f08c379a00000000000000000000000000000000000000000000000000000000081526004016111b490612d1e565b60405180910390fd5b50565b600033905090565b816004600083815260200190815260200160002060006101000a81548173ffffffffffffffffffffffffffffffffffffffff021916908373ffffffffffffffffffffffffffffffffffffffff160217905550808273ffffffffffffffffffffffffffffffffffffffff1661123b83610809565b73ffffffffffffffffffffffffffffffffffffffff167f8c5be1e5ebec7d5bd14f71427d1e84f3dd0314c0f7b2291e5b200ac8c7c3b92560405160405180910390a45050565b600081600001549050919050565b6112a9828260405180602001604052806000815250611bd1565b5050565b6113478383836040516024016112c593929190613257565b6040516020818303038152906040527f1c7ec448000000000000000000000000000000000000000000000000000000007bffffffffffffffffffffffffffffffffffffffffffffffffffffffff19166020820180517bffffffffffffffffffffffffffffffffffffffffffffffffffffffff8381831617835250505050611b67565b505050565b6001816000016000828254019250508190555050565b60008061136e83610809565b90508073ffffffffffffffffffffffffffffffffffffffff168473ffffffffffffffffffffffffffffffffffffffff1614806113b057506113af8185610fde565b5b806113ee57508373ffffffffffffffffffffffffffffffffffffffff166113d6846104c9565b73ffffffffffffffffffffffffffffffffffffffff16145b91505092915050565b8273ffffffffffffffffffffffffffffffffffffffff1661141782610809565b73ffffffffffffffffffffffffffffffffffffffff161461146d576040517f08c379a000000000000000000000000000000000000000000000000000000000815260040161146490613307565b60405180910390fd5b600073ffffffffffffffffffffffffffffffffffffffff168273ffffffffffffffffffffffffffffffffffffffff1614156114dd576040517f08c379a00000000000000000000000000000000000000000000000000000000081526004016114d490613399565b60405180910390fd5b6114ea8383836001611c2c565b8273ffffffffffffffffffffffffffffffffffffffff1661150a82610809565b73ffffffffffffffffffffffffffffffffffffffff1614611560576040517f08c379a000000000000000000000000000000000000000000000000000000000815260040161155790613307565b60405180910390fd5b6004600082815260200190815260200160002060006101000a81549073ffffffffffffffffffffffffffffffffffffffff02191690556001600360008573ffffffffffffffffffffffffffffffffffffffff1673ffffffffffffffffffffffffffffffffffffffff168152602001908152602001600020600082825403925050819055506001600360008473ffffffffffffffffffffffffffffffffffffffff1673ffffffffffffffffffffffffffffffffffffffff16815260200190815260200160002060008282540192505081905550816002600083815260200190815260200160002060006101000a81548173ffffffffffffffffffffffffffffffffffffffff021916908373ffffffffffffffffffffffffffffffffffffffff160217905550808273ffffffffffffffffffffffffffffffffffffffff168473ffffffffffffffffffffffffffffffffffffffff167fddf252ad1be2c89b69c2b068fc378daa952ba7f163c4a11628f55a4df523b3ef60405160405180910390a46116ec8383836001611d52565b505050565b60006002600083815260200190815260200160002060009054906101000a900473ffffffffffffffffffffffffffffffffffffffff169050919050565b8173ffffffffffffffffffffffffffffffffffffffff168373ffffffffffffffffffffffffffffffffffffffff16141561179d576040517f08c379a000000000000000000000000000000000000000000000000000000000815260040161179490613405565b60405180910390fd5b80600560008573ffffffffffffffffffffffffffffffffffffffff1673ffffffffffffffffffffffffffffffffffffffff16815260200190815260200160002060008473ffffffffffffffffffffffffffffffffffffffff1673ffffffffffffffffffffffffffffffffffffffff16815260200190815260200160002060006101000a81548160ff0219169083151502179055508173ffffffffffffffffffffffffffffffffffffffff168373ffffffffffffffffffffffffffffffffffffffff167f17307eab39ab6107e8899845ad3d59bd9653f200f220920489ca2b5937696c318360405161188e91906123da565b60405180910390a3505050565b6118a68484846113f7565b6118b284848484611d58565b6118f1576040517f08c379a00000000000000000000000000000000000000000000000000000000081526004016118e890613497565b60405180910390fd5b50505050565b60606000600161190684611eef565b01905060008167ffffffffffffffff811115611925576119246125e5565b5b6040519080825280601f01601f1916602001820160405280156119575781602001600182028036833780820191505090505b509050600082602001820190505b6001156119c4578080600190039150507f3031323334353637383961626364656600000000000000000000000000000000600a86061a8153600a85816119ae576119ad6134b7565b5b04945060008514156119bf576119c4565b611965565b819350505050919050565b606060008251905060008114156119f85760405180602001604052806000815250915050611b62565b60006003600283611a0991906134e6565b611a13919061353c565b6004611a1f919061356d565b90506000602082611a3091906134e6565b67ffffffffffffffff811115611a4957611a486125e5565b5b6040519080825280601f01601f191660200182016040528015611a7b5781602001600182028036833780820191505090505b50905060006040518060600160405280604081526020016137dc604091399050600181016020830160005b86811015611b1f5760038101905062ffffff818a015116603f8160121c168401518060081b905060ff603f83600c1c1686015116810190508060081b905060ff603f8360061c1686015116810190508060081b905060ff603f831686015116810190508060e01b90508084526004840193505050611aa6565b506003860660018114611b395760028114611b4957611b54565b613d3d60f01b6002830352611b54565b603d60f81b60018303525b508484525050819450505050505b919050565b60008151905060006a636f6e736f6c652e6c6f679050602083016000808483855afa5050505050565b60008073ffffffffffffffffffffffffffffffffffffffff16611bb2836116f1565b73ffffffffffffffffffffffffffffffffffffffff1614159050919050565b611bdb8383612042565b611be86000848484611d58565b611c27576040517f08c379a0000000000000000000000000000000000000000000000000000000008152600401611c1e90613497565b60405180910390fd5b505050565b6001811115611d4c57600073ffffffffffffffffffffffffffffffffffffffff168473ffffffffffffffffffffffffffffffffffffffff1614611cc05780600360008673ffffffffffffffffffffffffffffffffffffffff1673ffffffffffffffffffffffffffffffffffffffff1681526020019081526020016000206000828254611cb891906135c7565b925050819055505b600073ffffffffffffffffffffffffffffffffffffffff168373ffffffffffffffffffffffffffffffffffffffff1614611d4b5780600360008573ffffffffffffffffffffffffffffffffffffffff1673ffffffffffffffffffffffffffffffffffffffff1681526020019081526020016000206000828254611d4391906134e6565b925050819055505b5b50505050565b50505050565b6000611d798473ffffffffffffffffffffffffffffffffffffffff16612260565b15611ee2578373ffffffffffffffffffffffffffffffffffffffff1663150b7a02611da26111c0565b8786866040518563ffffffff1660e01b8152600401611dc49493929190613650565b602060405180830381600087803b158015611dde57600080fd5b505af1925050508015611e0f57506040513d601f19601f82011682018060405250810190611e0c91906136b1565b60015b611e92573d8060008114611e3f576040519150601f19603f3d011682016040523d82523d6000602084013e611e44565b606091505b50600081511415611e8a576040517f08c379a0000000000000000000000000000000000000000000000000000000008152600401611e8190613497565b60405180910390fd5b805181602001fd5b63150b7a0260e01b7bffffffffffffffffffffffffffffffffffffffffffffffffffffffff1916817bffffffffffffffffffffffffffffffffffffffffffffffffffffffff191614915050611ee7565b600190505b949350505050565b600080600090507a184f03e93ff9f4daa797ed6e38ed64bf6a1f0100000000000000008310611f4d577a184f03e93ff9f4daa797ed6e38ed64bf6a1f0100000000000000008381611f4357611f426134b7565b5b0492506040810190505b6d04ee2d6d415b85acef81000000008310611f8a576d04ee2d6d415b85acef81000000008381611f8057611f7f6134b7565b5b0492506020810190505b662386f26fc100008310611fb957662386f26fc100008381611faf57611fae6134b7565b5b0492506010810190505b6305f5e1008310611fe2576305f5e1008381611fd857611fd76134b7565b5b0492506008810190505b6127108310612007576127108381611ffd57611ffc6134b7565b5b0492506004810190505b6064831061202a57606483816120205761201f6134b7565b5b0492506002810190505b600a8310612039576001810190505b80915050919050565b600073ffffffffffffffffffffffffffffffffffffffff168273ffffffffffffffffffffffffffffffffffffffff1614156120b2576040517f08c379a00000000000000000000000000000000000000000000000000000000081526004016120a99061372a565b60405180910390fd5b6120bb81611b90565b156120fb576040517f08c379a00000000000000000000000000000000000000000000000000000000081526004016120f290613796565b60405180910390fd5b612109600083836001611c2c565b61211281611b90565b15612152576040517f08c379a000000000000000000000000000000000000000000000000000000000815260040161214990613796565b60405180910390fd5b6001600360008473ffffffffffffffffffffffffffffffffffffffff1673ffffffffffffffffffffffffffffffffffffffff16815260200190815260200160002060008282540192505081905550816002600083815260200190815260200160002060006101000a81548173ffffffffffffffffffffffffffffffffffffffff021916908373ffffffffffffffffffffffffffffffffffffffff160217905550808273ffffffffffffffffffffffffffffffffffffffff16600073ffffffffffffffffffffffffffffffffffffffff167fddf252ad1be2c89b69c2b068fc378daa952ba7f163c4a11628f55a4df523b3ef60405160405180910390a461225c600083836001611d52565b5050565b6000808273ffffffffffffffffffffffffffffffffffffffff163b119050919050565b82805461228f90612a60565b90600052602060002090601f0160209004810192826122b157600085556122f8565b82601f106122ca57805160ff19168380011785556122f8565b828001600101855582156122f8579182015b828111156122f75782518255916020019190600101906122dc565b5b5090506123059190612309565b5090565b5b8082111561232257600081600090555060010161230a565b5090565b6000604051905090565b600080fd5b600080fd5b60007fffffffff0000000000000000000000000000000000000000000000000000000082169050919050565b61236f8161233a565b811461237a57600080fd5b50565b60008135905061238c81612366565b92915050565b6000602082840312156123a8576123a7612330565b5b60006123b68482850161237d565b91505092915050565b60008115159050919050565b6123d4816123bf565b82525050565b60006020820190506123ef60008301846123cb565b92915050565b600081519050919050565b600082825260208201905092915050565b60005b8381101561242f578082015181840152602081019050612414565b8381111561243e576000848401525b50505050565b6000601f19601f8301169050919050565b6000612460826123f5565b61246a8185612400565b935061247a818560208601612411565b61248381612444565b840191505092915050565b600060208201905081810360008301526124a88184612455565b905092915050565b6000819050919050565b6124c3816124b0565b81146124ce57600080fd5b50565b6000813590506124e0816124ba565b92915050565b6000602082840312156124fc576124fb612330565b5b600061250a848285016124d1565b91505092915050565b600073ffffffffffffffffffffffffffffffffffffffff82169050919050565b600061253e82612513565b9050919050565b61254e81612533565b82525050565b60006020820190506125696000830184612545565b92915050565b61257881612533565b811461258357600080fd5b50565b6000813590506125958161256f565b92915050565b600080604083850312156125b2576125b1612330565b5b60006125c085828601612586565b92505060206125d1858286016124d1565b9150509250929050565b600080fd5b600080fd5b7f4e487b7100000000000000000000000000000000000000000000000000000000600052604160045260246000fd5b61261d82612444565b810181811067ffffffffffffffff8211171561263c5761263b6125e5565b5b80604052505050565b600061264f612326565b905061265b8282612614565b919050565b600067ffffffffffffffff82111561267b5761267a6125e5565b5b61268482612444565b9050602081019050919050565b82818337600083830152505050565b60006126b36126ae84612660565b612645565b9050828152602081018484840111156126cf576126ce6125e0565b5b6126da848285612691565b509392505050565b600082601f8301126126f7576126f66125db565b5b81356127078482602086016126a0565b91505092915050565b60008060006060848603121561272957612728612330565b5b600084013567ffffffffffffffff81111561274757612746612335565b5b612753868287016126e2565b935050602084013567ffffffffffffffff81111561277457612773612335565b5b612780868287016126e2565b925050604084013567ffffffffffffffff8111156127a1576127a0612335565b5b6127ad868287016126e2565b9150509250925092565b6000806000606084860312156127d0576127cf612330565b5b60006127de86828701612586565b93505060206127ef86828701612586565b9250506040612800868287016124d1565b9150509250925092565b612813816124b0565b82525050565b600060208201905061282e600083018461280a565b92915050565b60006020828403121561284a57612849612330565b5b600061285884828501612586565b91505092915050565b61286a816123bf565b811461287557600080fd5b50565b60008135905061288781612861565b92915050565b600080604083850312156128a4576128a3612330565b5b60006128b285828601612586565b92505060206128c385828601612878565b9150509250929050565b600067ffffffffffffffff8211156128e8576128e76125e5565b5b6128f182612444565b9050602081019050919050565b600061291161290c846128cd565b612645565b90508281526020810184848401111561292d5761292c6125e0565b5b612938848285612691565b509392505050565b600082601f830112612955576129546125db565b5b81356129658482602086016128fe565b91505092915050565b6000806000806080858703121561298857612987612330565b5b600061299687828801612586565b94505060206129a787828801612586565b93505060406129b8878288016124d1565b925050606085013567ffffffffffffffff8111156129d9576129d8612335565b5b6129e587828801612940565b91505092959194509250565b60008060408385031215612a0857612a07612330565b5b6000612a1685828601612586565b9250506020612a2785828601612586565b9150509250929050565b7f4e487b7100000000000000000000000000000000000000000000000000000000600052602260045260246000fd5b60006002820490506001821680612a7857607f821691505b60208210811415612a8c57612a8b612a31565b5b50919050565b7f4552433732313a20617070726f76616c20746f2063757272656e74206f776e6560008201527f7200000000000000000000000000000000000000000000000000000000000000602082015250565b6000612aee602183612400565b9150612af982612a92565b604082019050919050565b60006020820190508181036000830152612b1d81612ae1565b9050919050565b7f4552433732313a20617070726f76652063616c6c6572206973206e6f7420746f60008201527f6b656e206f776e6572206f7220617070726f76656420666f7220616c6c000000602082015250565b6000612b80603d83612400565b9150612b8b82612b24565b604082019050919050565b60006020820190508181036000830152612baf81612b73565b9050919050565b6000819050919050565b6000819050919050565b6000612be5612be0612bdb84612bb6565b612bc0565b6124b0565b9050919050565b612bf581612bca565b82525050565b6000608082019050612c106000830187612545565b612c1d602083018661280a565b612c2a6040830185612bec565b612c3760608301846123cb565b95945050505050565b7f4552433732313a2063616c6c6572206973206e6f7420746f6b656e206f776e6560008201527f72206f7220617070726f76656400000000000000000000000000000000000000602082015250565b6000612c9c602d83612400565b9150612ca782612c40565b604082019050919050565b60006020820190508181036000830152612ccb81612c8f565b9050919050565b7f4552433732313a20696e76616c696420746f6b656e2049440000000000000000600082015250565b6000612d08601883612400565b9150612d1382612cd2565b602082019050919050565b60006020820190508181036000830152612d3781612cfb565b9050919050565b7f4552433732313a2061646472657373207a65726f206973206e6f74206120766160008201527f6c6964206f776e65720000000000000000000000000000000000000000000000602082015250565b6000612d9a602983612400565b9150612da582612d3e565b604082019050919050565b60006020820190508181036000830152612dc981612d8d565b9050919050565b7f4e487b7100000000000000000000000000000000000000000000000000000000600052603260045260246000fd5b600081905092915050565b7f7b226e616d65223a202200000000000000000000000000000000000000000000600082015250565b6000612e40600a83612dff565b9150612e4b82612e0a565b600a82019050919050565b60008190508160005260206000209050919050565b60008154612e7881612a60565b612e828186612dff565b94506001821660008114612e9d5760018114612eae57612ee1565b60ff19831686528186019350612ee1565b612eb785612e56565b60005b83811015612ed957815481890152600182019150602081019050612eba565b838801955050505b50505092915050565b7f202d2d204e465420233a20000000000000000000000000000000000000000000600082015250565b6000612f20600b83612dff565b9150612f2b82612eea565b600b82019050919050565b6000612f41826123f5565b612f4b8185612dff565b9350612f5b818560208601612411565b80840191505092915050565b7f222c20226465736372697074696f6e223a202200000000000000000000000000600082015250565b6000612f9d601383612dff565b9150612fa882612f67565b601382019050919050565b7f222c2022696d616765223a2022697066733a2f2f000000000000000000000000600082015250565b6000612fe9601483612dff565b9150612ff482612fb3565b601482019050919050565b7f227d000000000000000000000000000000000000000000000000000000000000600082015250565b6000613035600283612dff565b915061304082612fff565b600282019050919050565b600061305682612e33565b91506130628287612e6b565b915061306d82612f13565b91506130798286612f36565b915061308482612f90565b91506130908285612e6b565b915061309b82612fdc565b91506130a78284612e6b565b91506130b282613028565b915081905095945050505050565b7f646174613a6170706c69636174696f6e2f6a736f6e3b6261736536342c000000600082015250565b60006130f6601d83612dff565b9150613101826130c0565b601d82019050919050565b6000613117826130e9565b91506131238284612f36565b915081905092915050565b7f596f7520616c7265616479206c696b6564207468697320706f73740000000000600082015250565b6000613164601b83612400565b915061316f8261312e565b602082019050919050565b6000602082019050818103600083015261319381613157565b9050919050565b7f4e487b7100000000000000000000000000000000000000000000000000000000600052601160045260246000fd5b60006131d4826124b0565b91507fffffffffffffffffffffffffffffffffffffffffffffffffffffffffffffffff8214156132075761320661319a565b5b600182019050919050565b60006080820190506132276000830187612545565b613234602083018661280a565b613241604083018561280a565b61324e60608301846123cb565b95945050505050565b600060608201905081810360008301526132718186612455565b9050613280602083018561280a565b61328d6040830184612545565b949350505050565b7f4552433732313a207472616e736665722066726f6d20696e636f72726563742060008201527f6f776e6572000000000000000000000000000000000000000000000000000000602082015250565b60006132f1602583612400565b91506132fc82613295565b604082019050919050565b60006020820190508181036000830152613320816132e4565b9050919050565b7f4552433732313a207472616e7366657220746f20746865207a65726f2061646460008201527f7265737300000000000000000000000000000000000000000000000000000000602082015250565b6000613383602483612400565b915061338e82613327565b604082019050919050565b600060208201905081810360008301526133b281613376565b9050919050565b7f4552433732313a20617070726f766520746f2063616c6c657200000000000000600082015250565b60006133ef601983612400565b91506133fa826133b9565b602082019050919050565b6000602082019050818103600083015261341e816133e2565b9050919050565b7f4552433732313a207472616e7366657220746f206e6f6e20455243373231526560008201527f63656976657220696d706c656d656e7465720000000000000000000000000000602082015250565b6000613481603283612400565b915061348c82613425565b604082019050919050565b600060208201905081810360008301526134b081613474565b9050919050565b7f4e487b7100000000000000000000000000000000000000000000000000000000600052601260045260246000fd5b60006134f1826124b0565b91506134fc836124b0565b9250827fffffffffffffffffffffffffffffffffffffffffffffffffffffffffffffffff038211156135315761353061319a565b5b828201905092915050565b6000613547826124b0565b9150613552836124b0565b925082613562576135616134b7565b5b828204905092915050565b6000613578826124b0565b9150613583836124b0565b9250817fffffffffffffffffffffffffffffffffffffffffffffffffffffffffffffffff04831182151516156135bc576135bb61319a565b5b828202905092915050565b60006135d2826124b0565b91506135dd836124b0565b9250828210156135f0576135ef61319a565b5b828203905092915050565b600081519050919050565b600082825260208201905092915050565b6000613622826135fb565b61362c8185613606565b935061363c818560208601612411565b61364581612444565b840191505092915050565b60006080820190506136656000830187612545565b6136726020830186612545565b61367f604083018561280a565b81810360608301526136918184613617565b905095945050505050565b6000815190506136ab81612366565b92915050565b6000602082840312156136c7576136c6612330565b5b60006136d58482850161369c565b91505092915050565b7f4552433732313a206d696e7420746f20746865207a65726f2061646472657373600082015250565b6000613714602083612400565b915061371f826136de565b602082019050919050565b6000602082019050818103600083015261374381613707565b9050919050565b7f4552433732313a20746f6b656e20616c7265616479206d696e74656400000000600082015250565b6000613780601c83612400565b915061378b8261374a565b602082019050919050565b600060208201905081810360008301526137af81613773565b905091905056fe416e204e465420772f20494420257320686173206265656e206d696e74656420746f2025734142434445464748494a4b4c4d4e4f505152535455565758595a6162636465666768696a6b6c6d6e6f707172737475767778797a303132333435363738392b2fa264697066735822122011b8b2c421c8045bb12a409e53b07368eadc46f498945093d5c4d4b145fd6a4c64736f6c63430008090033",
  "linkReferences": {},
  "deployedLinkReferences": {}
}