{
  "_format": "hh-sol-artifact-1",
  "contractName": "Marketplace",
  "sourceName": "contracts/Marketplace.sol",
  "abi": [
    {
      "inputs": [],
      "stateMutability": "nonpayable",
      "type": "constructor"
    },
    {
      "anonymous": false,
      "inputs": [
        {
          "indexed": true,
          "internalType": "address",
          "name": "owner",
          "type": "address"
        },
        {
          "indexed": true,
          "internalType": "address",
          "name": "approved",
          "type": "address"
        },
        {
          "indexed": true,
          "internalType": "uint256",
          "name": "tokenId",
          "type": "uint256"
        }
      ],
      "name": "Approval",
      "type": "event"
    },
    {
      "anonymous": false,
      "inputs": [
        {
          "indexed": true,
          "internalType": "address",
          "name": "owner",
          "type": "address"
        },
        {
          "indexed": true,
          "internalType": "address",
          "name": "operator",
          "type": "address"
        },
        {
          "indexed": false,
          "internalType": "bool",
          "name": "approved",
          "type": "bool"
        }
      ],
      "name": "ApprovalForAll",
      "type": "event"
    },
    {
      "anonymous": false,
      "inputs": [
        {
          "indexed": false,
          "internalType": "address",
          "name": "sender",
          "type": "address"
        },
        {
          "indexed": false,
          "internalType": "uint256",
          "name": "tokenId",
          "type": "uint256"
        },
        {
          "indexed": false,
          "internalType": "uint256",
          "name": "likes",
          "type": "uint256"
        },
        {
          "indexed": false,
          "internalType": "bool",
          "name": "isLiked",
          "type": "bool"
        }
      ],
      "name": "NewLike",
      "type": "event"
    },
    {
      "anonymous": false,
      "inputs": [
        {
          "indexed": false,
          "internalType": "address",
          "name": "sender",
          "type": "address"
        },
        {
          "indexed": false,
          "internalType": "uint256",
          "name": "tokenId",
          "type": "uint256"
        },
        {
          "indexed": false,
          "internalType": "uint256",
          "name": "likes",
          "type": "uint256"
        },
        {
          "indexed": false,
          "internalType": "bool",
          "name": "isLiked",
          "type": "bool"
        }
      ],
      "name": "NewNFTMinted",
      "type": "event"
    },
    {
      "anonymous": false,
      "inputs": [
        {
          "indexed": true,
          "internalType": "address",
          "name": "from",
          "type": "address"
        },
        {
          "indexed": true,
          "internalType": "address",
          "name": "to",
          "type": "address"
        },
        {
          "indexed": true,
          "internalType": "uint256",
          "name": "tokenId",
          "type": "uint256"
        }
      ],
      "name": "Transfer",
      "type": "event"
    },
    {
      "inputs": [
        {
          "internalType": "address",
          "name": "to",
          "type": "address"
        },
        {
          "internalType": "uint256",
          "name": "tokenId",
          "type": "uint256"
        }
      ],
      "name": "approve",
      "outputs": [],
      "stateMutability": "nonpayable",
      "type": "function"
    },
    {
      "inputs": [
        {
          "internalType": "address",
          "name": "owner",
          "type": "address"
        }
      ],
      "name": "balanceOf",
      "outputs": [
        {
          "internalType": "uint256",
          "name": "",
          "type": "uint256"
        }
      ],
      "stateMutability": "view",
      "type": "function"
    },
    {
      "inputs": [],
      "name": "getAllNFTs",
      "outputs": [
        {
          "components": [
            {
              "internalType": "string",
              "name": "name",
              "type": "string"
            },
            {
              "internalType": "string",
              "name": "imageURL",
              "type": "string"
            },
            {
              "internalType": "string",
              "name": "description",
              "type": "string"
            },
            {
              "internalType": "uint256",
              "name": "likes",
              "type": "uint256"
            },
            {
              "internalType": "bool",
              "name": "isLiked",
              "type": "bool"
            }
          ],
          "internalType": "struct Marketplace.NFTAttributes[]",
          "name": "",
          "type": "tuple[]"
        }
      ],
      "stateMutability": "view",
      "type": "function"
    },
    {
      "inputs": [
        {
          "internalType": "uint256",
          "name": "tokenId",
          "type": "uint256"
        }
      ],
      "name": "getApproved",
      "outputs": [
        {
          "internalType": "address",
          "name": "",
          "type": "address"
        }
      ],
      "stateMutability": "view",
      "type": "function"
    },
    {
      "inputs": [
        {
          "internalType": "address",
          "name": "owner",
          "type": "address"
        },
        {
          "internalType": "address",
          "name": "operator",
          "type": "address"
        }
      ],
      "name": "isApprovedForAll",
      "outputs": [
        {
          "internalType": "bool",
          "name": "",
          "type": "bool"
        }
      ],
      "stateMutability": "view",
      "type": "function"
    },
    {
      "inputs": [
        {
          "internalType": "uint256",
          "name": "tokenId",
          "type": "uint256"
        }
      ],
      "name": "like",
      "outputs": [],
      "stateMutability": "nonpayable",
      "type": "function"
    },
    {
      "inputs": [
        {
          "internalType": "string",
          "name": "name",
          "type": "string"
        },
        {
          "internalType": "string",
          "name": "imageURI",
          "type": "string"
        },
        {
          "internalType": "string",
          "name": "description",
          "type": "string"
        }
      ],
      "name": "mintNFT",
      "outputs": [],
      "stateMutability": "nonpayable",
      "type": "function"
    },
    {
      "inputs": [],
      "name": "name",
      "outputs": [
        {
          "internalType": "string",
          "name": "",
          "type": "string"
        }
      ],
      "stateMutability": "view",
      "type": "function"
    },
    {
      "inputs": [
        {
          "internalType": "uint256",
          "name": "tokenId",
          "type": "uint256"
        }
      ],
      "name": "ownerOf",
      "outputs": [
        {
          "internalType": "address",
          "name": "",
          "type": "address"
        }
      ],
      "stateMutability": "view",
      "type": "function"
    },
    {
      "inputs": [
        {
          "internalType": "address",
          "name": "from",
          "type": "address"
        },
        {
          "internalType": "address",
          "name": "to",
          "type": "address"
        },
        {
          "internalType": "uint256",
          "name": "tokenId",
          "type": "uint256"
        }
      ],
      "name": "safeTransferFrom",
      "outputs": [],
      "stateMutability": "nonpayable",
      "type": "function"
    },
    {
      "inputs": [
        {
          "internalType": "address",
          "name": "from",
          "type": "address"
        },
        {
          "internalType": "address",
          "name": "to",
          "type": "address"
        },
        {
          "internalType": "uint256",
          "name": "tokenId",
          "type": "uint256"
        },
        {
          "internalType": "bytes",
          "name": "data",
          "type": "bytes"
        }
      ],
      "name": "safeTransferFrom",
      "outputs": [],
      "stateMutability": "nonpayable",
      "type": "function"
    },
    {
      "inputs": [
        {
          "internalType": "address",
          "name": "operator",
          "type": "address"
        },
        {
          "internalType": "bool",
          "name": "approved",
          "type": "bool"
        }
      ],
      "name": "setApprovalForAll",
      "outputs": [],
      "stateMutability": "nonpayable",
      "type": "function"
    },
    {
      "inputs": [
        {
          "internalType": "bytes4",
          "name": "interfaceId",
          "type": "bytes4"
        }
      ],
      "name": "supportsInterface",
      "outputs": [
        {
          "internalType": "bool",
          "name": "",
          "type": "bool"
        }
      ],
      "stateMutability": "view",
      "type": "function"
    },
    {
      "inputs": [],
      "name": "symbol",
      "outputs": [
        {
          "internalType": "string",
          "name": "",
          "type": "string"
        }
      ],
      "stateMutability": "view",
      "type": "function"
    },
    {
      "inputs": [
        {
          "internalType": "uint256",
          "name": "_tokenId",
          "type": "uint256"
        }
      ],
      "name": "tokenURI",
      "outputs": [
        {
          "internalType": "string",
          "name": "",
          "type": "string"
        }
      ],
      "stateMutability": "view",
      "type": "function"
    },
    {
      "inputs": [
        {
          "internalType": "address",
          "name": "from",
          "type": "address"
        },
        {
          "internalType": "address",
          "name": "to",
          "type": "address"
        },
        {
          "internalType": "uint256",
          "name": "tokenId",
          "type": "uint256"
        }
      ],
      "name": "transferFrom",
      "outputs": [],
      "stateMutability": "nonpayable",
      "type": "function"
    },
    {
      "inputs": [
        {
          "internalType": "address",
          "name": "",
          "type": "address"
        },
        {
          "internalType": "uint256",
          "name": "",
          "type": "uint256"
        }
      ],
      "name": "useToLikedList",
      "outputs": [
        {
          "internalType": "uint256",
          "name": "",
          "type": "uint256"
        }
      ],
      "stateMutability": "view",
      "type": "function"
    }
  ],
  "bytecode": "0x60806040523480156200001157600080fd5b506040518060400160405280600e81526020017f4e4654436f6c6c656374696f6e730000000000000000000000000000000000008152506040518060400160405280600381526020017f6e66740000000000000000000000000000000000000000000000000000000000815250816000908051906020019062000096929190620001cf565b508060019080519060200190620000af929190620001cf565b505050620000fd6040518060400160405280601881526020017f4e465420436f6c6c656374696f6e7320436f6e747261637400000000000000008152506200010360201b620012db1760201c565b620003ac565b620001a3816040516024016200011a919062000323565b6040516020818303038152906040527f41304fac000000000000000000000000000000000000000000000000000000007bffffffffffffffffffffffffffffffffffffffffffffffffffffffff19166020820180517bffffffffffffffffffffffffffffffffffffffffffffffffffffffff8381831617835250505050620001a660201b60201c565b50565b60008151905060006a636f6e736f6c652e6c6f679050602083016000808483855afa5050505050565b828054620001dd9062000376565b90600052602060002090601f0160209004810192826200020157600085556200024d565b82601f106200021c57805160ff19168380011785556200024d565b828001600101855582156200024d579182015b828111156200024c5782518255916020019190600101906200022f565b5b5090506200025c919062000260565b5090565b5b808211156200027b57600081600090555060010162000261565b5090565b600081519050919050565b600082825260208201905092915050565b60005b83811015620002bb5780820151818401526020810190506200029e565b83811115620002cb576000848401525b50505050565b6000601f19601f8301169050919050565b6000620002ef826200027f565b620002fb81856200028a565b93506200030d8185602086016200029b565b6200031881620002d1565b840191505092915050565b600060208201905081810360008301526200033f8184620002e2565b905092915050565b7f4e487b7100000000000000000000000000000000000000000000000000000000600052602260045260246000fd5b600060028204905060018216806200038f57607f821691505b60208210811415620003a657620003a562000347565b5b50919050565b613c8a80620003bc6000396000f3fe608060405234801561001057600080fd5b506004361061010b5760003560e01c806369cf2b63116100a2578063b88d4fde11610071578063b88d4fde146102c8578063c87b56dd146102e4578063e0391b0914610314578063e82935da14610332578063e985e9c51461034e5761010b565b806369cf2b631461022e57806370a082311461025e57806395d89b411461028e578063a22cb465146102ac5761010b565b80630c3b7b72116100de5780630c3b7b72146101aa57806323b872dd146101c657806342842e0e146101e25780636352211e146101fe5761010b565b806301ffc9a71461011057806306fdde0314610140578063081812fc1461015e578063095ea7b31461018e575b600080fd5b61012a600480360381019061012591906125fb565b61037e565b6040516101379190612643565b60405180910390f35b610148610460565b60405161015591906126f7565b60405180910390f35b6101786004803603810190610173919061274f565b6104f2565b60405161018591906127bd565b60405180910390f35b6101a860048036038101906101a39190612804565b610538565b005b6101c460048036038101906101bf9190612979565b610650565b005b6101e060048036038101906101db9190612a20565b6107b2565b005b6101fc60048036038101906101f79190612a20565b610812565b005b6102186004803603810190610213919061274f565b610832565b60405161022591906127bd565b60405180910390f35b61024860048036038101906102439190612804565b6108b9565b6040516102559190612a82565b60405180910390f35b61027860048036038101906102739190612a9d565b6108ea565b6040516102859190612a82565b60405180910390f35b6102966109a2565b6040516102a391906126f7565b60405180910390f35b6102c660048036038101906102c19190612af6565b610a34565b005b6102e260048036038101906102dd9190612bd7565b610a4a565b005b6102fe60048036038101906102f9919061274f565b610aac565b60405161030b91906126f7565b60405180910390f35b61031c610b82565b6040516103299190612e08565b60405180910390f35b61034c6004803603810190610347919061274f565b610dc2565b005b61036860048036038101906103639190612e2a565b611247565b6040516103759190612643565b60405180910390f35b60007f80ac58cd000000000000000000000000000000000000000000000000000000007bffffffffffffffffffffffffffffffffffffffffffffffffffffffff1916827bffffffffffffffffffffffffffffffffffffffffffffffffffffffff1916148061044957507f5b5e139f000000000000000000000000000000000000000000000000000000007bffffffffffffffffffffffffffffffffffffffffffffffffffffffff1916827bffffffffffffffffffffffffffffffffffffffffffffffffffffffff1916145b80610459575061045882611374565b5b9050919050565b60606000805461046f90612e99565b80601f016020809104026020016040519081016040528092919081815260200182805461049b90612e99565b80156104e85780601f106104bd576101008083540402835291602001916104e8565b820191906000526020600020905b8154815290600101906020018083116104cb57829003601f168201915b5050505050905090565b60006104fd826113de565b6004600083815260200190815260200160002060009054906101000a900473ffffffffffffffffffffffffffffffffffffffff169050919050565b600061054382610832565b90508073ffffffffffffffffffffffffffffffffffffffff168373ffffffffffffffffffffffffffffffffffffffff1614156105b4576040517f08c379a00000000000000000000000000000000000000000000000000000000081526004016105ab90612f3d565b60405180910390fd5b8073ffffffffffffffffffffffffffffffffffffffff166105d3611429565b73ffffffffffffffffffffffffffffffffffffffff1614806106025750610601816105fc611429565b611247565b5b610641576040517f08c379a000000000000000000000000000000000000000000000000000000000815260040161063890612fcf565b60405180910390fd5b61064b8383611431565b505050565b600061065c60086114ea565b905061066833826114f8565b60066040518060a001604052808681526020018581526020018481526020016000815260200160001515815250908060018154018082558091505060019003906000526020600020906005020160009091909190915060008201518160000190805190602001906106da9291906124ec565b5060208201518160010190805190602001906106f79291906124ec565b5060408201518160020190805190602001906107149291906124ec565b506060820151816003015560808201518160040160006101000a81548160ff0219169083151502179055505050610764604051806060016040528060258152602001613bf0602591398233611516565b61076e60086115b5565b7fa082d4929c033482a6db882e29e3b5baebf5c4e5aa904de49f624c7f6b6d976733826000806040516107a49493929190613034565b60405180910390a150505050565b6107c36107bd611429565b826115cb565b610802576040517f08c379a00000000000000000000000000000000000000000000000000000000081526004016107f9906130eb565b60405180910390fd5b61080d838383611660565b505050565b61082d83838360405180602001604052806000815250610a4a565b505050565b60008061083e8361195a565b9050600073ffffffffffffffffffffffffffffffffffffffff168173ffffffffffffffffffffffffffffffffffffffff1614156108b0576040517f08c379a00000000000000000000000000000000000000000000000000000000081526004016108a790613157565b60405180910390fd5b80915050919050565b600760205281600052604060002081815481106108d557600080fd5b90600052602060002001600091509150505481565b60008073ffffffffffffffffffffffffffffffffffffffff168273ffffffffffffffffffffffffffffffffffffffff16141561095b576040517f08c379a0000000000000000000000000000000000000000000000000000000008152600401610952906131e9565b60405180910390fd5b600360008373ffffffffffffffffffffffffffffffffffffffff1673ffffffffffffffffffffffffffffffffffffffff168152602001908152602001600020549050919050565b6060600180546109b190612e99565b80601f01602080910402602001604051908101604052809291908181526020018280546109dd90612e99565b8015610a2a5780601f106109ff57610100808354040283529160200191610a2a565b820191906000526020600020905b815481529060010190602001808311610a0d57829003601f168201915b5050505050905090565b610a46610a3f611429565b8383611997565b5050565b610a5b610a55611429565b836115cb565b610a9a576040517f08c379a0000000000000000000000000000000000000000000000000000000008152600401610a91906130eb565b60405180910390fd5b610aa684848484611b04565b50505050565b60606000610b5260068481548110610ac757610ac6613209565b5b9060005260206000209060050201600001610ae185611b60565b60068681548110610af557610af4613209565b5b906000526020600020906005020160020160068781548110610b1a57610b19613209565b5b9060005260206000209060050201600101604051602001610b3e9493929190613484565b604051602081830303815290604052611c38565b9050600081604051602001610b679190613545565b60405160208183030381529060405290508092505050919050565b606060006006805480602002602001604051908101604052809291908181526020016000905b82821015610db557838290600052602060002090600502016040518060a0016040529081600082018054610bdb90612e99565b80601f0160208091040260200160405190810160405280929190818152602001828054610c0790612e99565b8015610c545780601f10610c2957610100808354040283529160200191610c54565b820191906000526020600020905b815481529060010190602001808311610c3757829003601f168201915b50505050508152602001600182018054610c6d90612e99565b80601f0160208091040260200160405190810160405280929190818152602001828054610c9990612e99565b8015610ce65780601f10610cbb57610100808354040283529160200191610ce6565b820191906000526020600020905b815481529060010190602001808311610cc957829003601f168201915b50505050508152602001600282018054610cff90612e99565b80601f0160208091040260200160405190810160405280929190818152602001828054610d2b90612e99565b8015610d785780601f10610d4d57610100808354040283529160200191610d78565b820191906000526020600020905b815481529060010190602001808311610d5b57829003601f168201915b50505050508152602001600382015481526020016004820160009054906101000a900460ff16151515158152505081526020019060010190610ba8565b5050505090508091505090565b60005b600760003373ffffffffffffffffffffffffffffffffffffffff1673ffffffffffffffffffffffffffffffffffffffff16815260200190815260200160002080549050811015610ec6576000600760003373ffffffffffffffffffffffffffffffffffffffff1673ffffffffffffffffffffffffffffffffffffffff1681526020019081526020016000208281548110610e6257610e61613209565b5b9060005260206000200154905082811415610eb2576040517f08c379a0000000000000000000000000000000000000000000000000000000008152600401610ea9906135b3565b60405180910390fd5b508080610ebe90613602565b915050610dc5565b5060068181548110610edb57610eda613209565b5b90600052602060002090600502016003016000815480929190610efd90613602565b9190505550600760003373ffffffffffffffffffffffffffffffffffffffff1673ffffffffffffffffffffffffffffffffffffffff16815260200190815260200160002081908060018154018082558091505060019003906000526020600020016000909190919091505560006006805480602002602001604051908101604052809291908181526020016000905b8282101561119957838290600052602060002090600502016040518060a0016040529081600082018054610fbf90612e99565b80601f0160208091040260200160405190810160405280929190818152602001828054610feb90612e99565b80156110385780601f1061100d57610100808354040283529160200191611038565b820191906000526020600020905b81548152906001019060200180831161101b57829003601f168201915b5050505050815260200160018201805461105190612e99565b80601f016020809104026020016040519081016040528092919081815260200182805461107d90612e99565b80156110ca5780601f1061109f576101008083540402835291602001916110ca565b820191906000526020600020905b8154815290600101906020018083116110ad57829003601f168201915b505050505081526020016002820180546110e390612e99565b80601f016020809104026020016040519081016040528092919081815260200182805461110f90612e99565b801561115c5780601f106111315761010080835404028352916020019161115c565b820191906000526020600020905b81548152906001019060200180831161113f57829003601f168201915b50505050508152602001600382015481526020016004820160009054906101000a900460ff16151515158152505081526020019060010190610f8c565b50505050905060018183815181106111b4576111b3613209565b5b602002602001015160800190151590811515815250507fb62aea7ecf0f4f0d25342fe3f267577ecb1538c3503bdd63086881c0e89bfad23383838581518110611200576111ff613209565b5b60200260200101516060015184868151811061121f5761121e613209565b5b60200260200101516080015160405161123b949392919061364b565b60405180910390a15050565b6000600560008473ffffffffffffffffffffffffffffffffffffffff1673ffffffffffffffffffffffffffffffffffffffff16815260200190815260200160002060008373ffffffffffffffffffffffffffffffffffffffff1673ffffffffffffffffffffffffffffffffffffffff16815260200190815260200160002060009054906101000a900460ff16905092915050565b611371816040516024016112ef91906126f7565b6040516020818303038152906040527f41304fac000000000000000000000000000000000000000000000000000000007bffffffffffffffffffffffffffffffffffffffffffffffffffffffff19166020820180517bffffffffffffffffffffffffffffffffffffffffffffffffffffffff8381831617835250505050611dd0565b50565b60007f01ffc9a7000000000000000000000000000000000000000000000000000000007bffffffffffffffffffffffffffffffffffffffffffffffffffffffff1916827bffffffffffffffffffffffffffffffffffffffffffffffffffffffff1916149050919050565b6113e781611df9565b611426576040517f08c379a000000000000000000000000000000000000000000000000000000000815260040161141d90613157565b60405180910390fd5b50565b600033905090565b816004600083815260200190815260200160002060006101000a81548173ffffffffffffffffffffffffffffffffffffffff021916908373ffffffffffffffffffffffffffffffffffffffff160217905550808273ffffffffffffffffffffffffffffffffffffffff166114a483610832565b73ffffffffffffffffffffffffffffffffffffffff167f8c5be1e5ebec7d5bd14f71427d1e84f3dd0314c0f7b2291e5b200ac8c7c3b92560405160405180910390a45050565b600081600001549050919050565b611512828260405180602001604052806000815250611e3a565b5050565b6115b083838360405160240161152e93929190613690565b6040516020818303038152906040527f1c7ec448000000000000000000000000000000000000000000000000000000007bffffffffffffffffffffffffffffffffffffffffffffffffffffffff19166020820180517bffffffffffffffffffffffffffffffffffffffffffffffffffffffff8381831617835250505050611dd0565b505050565b6001816000016000828254019250508190555050565b6000806115d783610832565b90508073ffffffffffffffffffffffffffffffffffffffff168473ffffffffffffffffffffffffffffffffffffffff16148061161957506116188185611247565b5b8061165757508373ffffffffffffffffffffffffffffffffffffffff1661163f846104f2565b73ffffffffffffffffffffffffffffffffffffffff16145b91505092915050565b8273ffffffffffffffffffffffffffffffffffffffff1661168082610832565b73ffffffffffffffffffffffffffffffffffffffff16146116d6576040517f08c379a00000000000000000000000000000000000000000000000000000000081526004016116cd90613740565b60405180910390fd5b600073ffffffffffffffffffffffffffffffffffffffff168273ffffffffffffffffffffffffffffffffffffffff161415611746576040517f08c379a000000000000000000000000000000000000000000000000000000000815260040161173d906137d2565b60405180910390fd5b6117538383836001611e95565b8273ffffffffffffffffffffffffffffffffffffffff1661177382610832565b73ffffffffffffffffffffffffffffffffffffffff16146117c9576040517f08c379a00000000000000000000000000000000000000000000000000000000081526004016117c090613740565b60405180910390fd5b6004600082815260200190815260200160002060006101000a81549073ffffffffffffffffffffffffffffffffffffffff02191690556001600360008573ffffffffffffffffffffffffffffffffffffffff1673ffffffffffffffffffffffffffffffffffffffff168152602001908152602001600020600082825403925050819055506001600360008473ffffffffffffffffffffffffffffffffffffffff1673ffffffffffffffffffffffffffffffffffffffff16815260200190815260200160002060008282540192505081905550816002600083815260200190815260200160002060006101000a81548173ffffffffffffffffffffffffffffffffffffffff021916908373ffffffffffffffffffffffffffffffffffffffff160217905550808273ffffffffffffffffffffffffffffffffffffffff168473ffffffffffffffffffffffffffffffffffffffff167fddf252ad1be2c89b69c2b068fc378daa952ba7f163c4a11628f55a4df523b3ef60405160405180910390a46119558383836001611fbb565b505050565b60006002600083815260200190815260200160002060009054906101000a900473ffffffffffffffffffffffffffffffffffffffff169050919050565b8173ffffffffffffffffffffffffffffffffffffffff168373ffffffffffffffffffffffffffffffffffffffff161415611a06576040517f08c379a00000000000000000000000000000000000000000000000000000000081526004016119fd9061383e565b60405180910390fd5b80600560008573ffffffffffffffffffffffffffffffffffffffff1673ffffffffffffffffffffffffffffffffffffffff16815260200190815260200160002060008473ffffffffffffffffffffffffffffffffffffffff1673ffffffffffffffffffffffffffffffffffffffff16815260200190815260200160002060006101000a81548160ff0219169083151502179055508173ffffffffffffffffffffffffffffffffffffffff168373ffffffffffffffffffffffffffffffffffffffff167f17307eab39ab6107e8899845ad3d59bd9653f200f220920489ca2b5937696c3183604051611af79190612643565b60405180910390a3505050565b611b0f848484611660565b611b1b84848484611fc1565b611b5a576040517f08c379a0000000000000000000000000000000000000000000000000000000008152600401611b51906138d0565b60405180910390fd5b50505050565b606060006001611b6f84612158565b01905060008167ffffffffffffffff811115611b8e57611b8d61284e565b5b6040519080825280601f01601f191660200182016040528015611bc05781602001600182028036833780820191505090505b509050600082602001820190505b600115611c2d578080600190039150507f3031323334353637383961626364656600000000000000000000000000000000600a86061a8153600a8581611c1757611c166138f0565b5b0494506000851415611c2857611c2d565b611bce565b819350505050919050565b60606000825190506000811415611c615760405180602001604052806000815250915050611dcb565b60006003600283611c72919061391f565b611c7c9190613975565b6004611c8891906139a6565b90506000602082611c99919061391f565b67ffffffffffffffff811115611cb257611cb161284e565b5b6040519080825280601f01601f191660200182016040528015611ce45781602001600182028036833780820191505090505b5090506000604051806060016040528060408152602001613c15604091399050600181016020830160005b86811015611d885760038101905062ffffff818a015116603f8160121c168401518060081b905060ff603f83600c1c1686015116810190508060081b905060ff603f8360061c1686015116810190508060081b905060ff603f831686015116810190508060e01b90508084526004840193505050611d0f565b506003860660018114611da25760028114611db257611dbd565b613d3d60f01b6002830352611dbd565b603d60f81b60018303525b508484525050819450505050505b919050565b60008151905060006a636f6e736f6c652e6c6f679050602083016000808483855afa5050505050565b60008073ffffffffffffffffffffffffffffffffffffffff16611e1b8361195a565b73ffffffffffffffffffffffffffffffffffffffff1614159050919050565b611e4483836122ab565b611e516000848484611fc1565b611e90576040517f08c379a0000000000000000000000000000000000000000000000000000000008152600401611e87906138d0565b60405180910390fd5b505050565b6001811115611fb557600073ffffffffffffffffffffffffffffffffffffffff168473ffffffffffffffffffffffffffffffffffffffff1614611f295780600360008673ffffffffffffffffffffffffffffffffffffffff1673ffffffffffffffffffffffffffffffffffffffff1681526020019081526020016000206000828254611f219190613a00565b925050819055505b600073ffffffffffffffffffffffffffffffffffffffff168373ffffffffffffffffffffffffffffffffffffffff1614611fb45780600360008573ffffffffffffffffffffffffffffffffffffffff1673ffffffffffffffffffffffffffffffffffffffff1681526020019081526020016000206000828254611fac919061391f565b925050819055505b5b50505050565b50505050565b6000611fe28473ffffffffffffffffffffffffffffffffffffffff166124c9565b1561214b578373ffffffffffffffffffffffffffffffffffffffff1663150b7a0261200b611429565b8786866040518563ffffffff1660e01b815260040161202d9493929190613a89565b602060405180830381600087803b15801561204757600080fd5b505af192505050801561207857506040513d601f19601f820116820180604052508101906120759190613aea565b60015b6120fb573d80600081146120a8576040519150601f19603f3d011682016040523d82523d6000602084013e6120ad565b606091505b506000815114156120f3576040517f08c379a00000000000000000000000000000000000000000000000000000000081526004016120ea906138d0565b60405180910390fd5b805181602001fd5b63150b7a0260e01b7bffffffffffffffffffffffffffffffffffffffffffffffffffffffff1916817bffffffffffffffffffffffffffffffffffffffffffffffffffffffff191614915050612150565b600190505b949350505050565b600080600090507a184f03e93ff9f4daa797ed6e38ed64bf6a1f01000000000000000083106121b6577a184f03e93ff9f4daa797ed6e38ed64bf6a1f01000000000000000083816121ac576121ab6138f0565b5b0492506040810190505b6d04ee2d6d415b85acef810000000083106121f3576d04ee2d6d415b85acef810000000083816121e9576121e86138f0565b5b0492506020810190505b662386f26fc10000831061222257662386f26fc100008381612218576122176138f0565b5b0492506010810190505b6305f5e100831061224b576305f5e1008381612241576122406138f0565b5b0492506008810190505b6127108310612270576127108381612266576122656138f0565b5b0492506004810190505b606483106122935760648381612289576122886138f0565b5b0492506002810190505b600a83106122a2576001810190505b80915050919050565b600073ffffffffffffffffffffffffffffffffffffffff168273ffffffffffffffffffffffffffffffffffffffff16141561231b576040517f08c379a000000000000000000000000000000000000000000000000000000000815260040161231290613b63565b60405180910390fd5b61232481611df9565b15612364576040517f08c379a000000000000000000000000000000000000000000000000000000000815260040161235b90613bcf565b60405180910390fd5b612372600083836001611e95565b61237b81611df9565b156123bb576040517f08c379a00000000000000000000000000000000000000000000000000000000081526004016123b290613bcf565b60405180910390fd5b6001600360008473ffffffffffffffffffffffffffffffffffffffff1673ffffffffffffffffffffffffffffffffffffffff16815260200190815260200160002060008282540192505081905550816002600083815260200190815260200160002060006101000a81548173ffffffffffffffffffffffffffffffffffffffff021916908373ffffffffffffffffffffffffffffffffffffffff160217905550808273ffffffffffffffffffffffffffffffffffffffff16600073ffffffffffffffffffffffffffffffffffffffff167fddf252ad1be2c89b69c2b068fc378daa952ba7f163c4a11628f55a4df523b3ef60405160405180910390a46124c5600083836001611fbb565b5050565b6000808273ffffffffffffffffffffffffffffffffffffffff163b119050919050565b8280546124f890612e99565b90600052602060002090601f01602090048101928261251a5760008555612561565b82601f1061253357805160ff1916838001178555612561565b82800160010185558215612561579182015b82811115612560578251825591602001919060010190612545565b5b50905061256e9190612572565b5090565b5b8082111561258b576000816000905550600101612573565b5090565b6000604051905090565b600080fd5b600080fd5b60007fffffffff0000000000000000000000000000000000000000000000000000000082169050919050565b6125d8816125a3565b81146125e357600080fd5b50565b6000813590506125f5816125cf565b92915050565b60006020828403121561261157612610612599565b5b600061261f848285016125e6565b91505092915050565b60008115159050919050565b61263d81612628565b82525050565b60006020820190506126586000830184612634565b92915050565b600081519050919050565b600082825260208201905092915050565b60005b8381101561269857808201518184015260208101905061267d565b838111156126a7576000848401525b50505050565b6000601f19601f8301169050919050565b60006126c98261265e565b6126d38185612669565b93506126e381856020860161267a565b6126ec816126ad565b840191505092915050565b6000602082019050818103600083015261271181846126be565b905092915050565b6000819050919050565b61272c81612719565b811461273757600080fd5b50565b60008135905061274981612723565b92915050565b60006020828403121561276557612764612599565b5b60006127738482850161273a565b91505092915050565b600073ffffffffffffffffffffffffffffffffffffffff82169050919050565b60006127a78261277c565b9050919050565b6127b78161279c565b82525050565b60006020820190506127d260008301846127ae565b92915050565b6127e18161279c565b81146127ec57600080fd5b50565b6000813590506127fe816127d8565b92915050565b6000806040838503121561281b5761281a612599565b5b6000612829858286016127ef565b925050602061283a8582860161273a565b9150509250929050565b600080fd5b600080fd5b7f4e487b7100000000000000000000000000000000000000000000000000000000600052604160045260246000fd5b612886826126ad565b810181811067ffffffffffffffff821117156128a5576128a461284e565b5b80604052505050565b60006128b861258f565b90506128c4828261287d565b919050565b600067ffffffffffffffff8211156128e4576128e361284e565b5b6128ed826126ad565b9050602081019050919050565b82818337600083830152505050565b600061291c612917846128c9565b6128ae565b90508281526020810184848401111561293857612937612849565b5b6129438482856128fa565b509392505050565b600082601f8301126129605761295f612844565b5b8135612970848260208601612909565b91505092915050565b60008060006060848603121561299257612991612599565b5b600084013567ffffffffffffffff8111156129b0576129af61259e565b5b6129bc8682870161294b565b935050602084013567ffffffffffffffff8111156129dd576129dc61259e565b5b6129e98682870161294b565b925050604084013567ffffffffffffffff811115612a0a57612a0961259e565b5b612a168682870161294b565b9150509250925092565b600080600060608486031215612a3957612a38612599565b5b6000612a47868287016127ef565b9350506020612a58868287016127ef565b9250506040612a698682870161273a565b9150509250925092565b612a7c81612719565b82525050565b6000602082019050612a976000830184612a73565b92915050565b600060208284031215612ab357612ab2612599565b5b6000612ac1848285016127ef565b91505092915050565b612ad381612628565b8114612ade57600080fd5b50565b600081359050612af081612aca565b92915050565b60008060408385031215612b0d57612b0c612599565b5b6000612b1b858286016127ef565b9250506020612b2c85828601612ae1565b9150509250929050565b600067ffffffffffffffff821115612b5157612b5061284e565b5b612b5a826126ad565b9050602081019050919050565b6000612b7a612b7584612b36565b6128ae565b905082815260208101848484011115612b9657612b95612849565b5b612ba18482856128fa565b509392505050565b600082601f830112612bbe57612bbd612844565b5b8135612bce848260208601612b67565b91505092915050565b60008060008060808587031215612bf157612bf0612599565b5b6000612bff878288016127ef565b9450506020612c10878288016127ef565b9350506040612c218782880161273a565b925050606085013567ffffffffffffffff811115612c4257612c4161259e565b5b612c4e87828801612ba9565b91505092959194509250565b600081519050919050565b600082825260208201905092915050565b6000819050602082019050919050565b600082825260208201905092915050565b6000612ca28261265e565b612cac8185612c86565b9350612cbc81856020860161267a565b612cc5816126ad565b840191505092915050565b612cd981612719565b82525050565b612ce881612628565b82525050565b600060a0830160008301518482036000860152612d0b8282612c97565b91505060208301518482036020860152612d258282612c97565b91505060408301518482036040860152612d3f8282612c97565b9150506060830151612d546060860182612cd0565b506080830151612d676080860182612cdf565b508091505092915050565b6000612d7e8383612cee565b905092915050565b6000602082019050919050565b6000612d9e82612c5a565b612da88185612c65565b935083602082028501612dba85612c76565b8060005b85811015612df65784840389528151612dd78582612d72565b9450612de283612d86565b925060208a01995050600181019050612dbe565b50829750879550505050505092915050565b60006020820190508181036000830152612e228184612d93565b905092915050565b60008060408385031215612e4157612e40612599565b5b6000612e4f858286016127ef565b9250506020612e60858286016127ef565b9150509250929050565b7f4e487b7100000000000000000000000000000000000000000000000000000000600052602260045260246000fd5b60006002820490506001821680612eb157607f821691505b60208210811415612ec557612ec4612e6a565b5b50919050565b7f4552433732313a20617070726f76616c20746f2063757272656e74206f776e6560008201527f7200000000000000000000000000000000000000000000000000000000000000602082015250565b6000612f27602183612669565b9150612f3282612ecb565b604082019050919050565b60006020820190508181036000830152612f5681612f1a565b9050919050565b7f4552433732313a20617070726f76652063616c6c6572206973206e6f7420746f60008201527f6b656e206f776e6572206f7220617070726f76656420666f7220616c6c000000602082015250565b6000612fb9603d83612669565b9150612fc482612f5d565b604082019050919050565b60006020820190508181036000830152612fe881612fac565b9050919050565b6000819050919050565b6000819050919050565b600061301e61301961301484612fef565b612ff9565b612719565b9050919050565b61302e81613003565b82525050565b600060808201905061304960008301876127ae565b6130566020830186612a73565b6130636040830185613025565b6130706060830184612634565b95945050505050565b7f4552433732313a2063616c6c6572206973206e6f7420746f6b656e206f776e6560008201527f72206f7220617070726f76656400000000000000000000000000000000000000602082015250565b60006130d5602d83612669565b91506130e082613079565b604082019050919050565b60006020820190508181036000830152613104816130c8565b9050919050565b7f4552433732313a20696e76616c696420746f6b656e2049440000000000000000600082015250565b6000613141601883612669565b915061314c8261310b565b602082019050919050565b6000602082019050818103600083015261317081613134565b9050919050565b7f4552433732313a2061646472657373207a65726f206973206e6f74206120766160008201527f6c6964206f776e65720000000000000000000000000000000000000000000000602082015250565b60006131d3602983612669565b91506131de82613177565b604082019050919050565b60006020820190508181036000830152613202816131c6565b9050919050565b7f4e487b7100000000000000000000000000000000000000000000000000000000600052603260045260246000fd5b600081905092915050565b7f7b226e616d65223a202200000000000000000000000000000000000000000000600082015250565b6000613279600a83613238565b915061328482613243565b600a82019050919050565b60008190508160005260206000209050919050565b600081546132b181612e99565b6132bb8186613238565b945060018216600081146132d657600181146132e75761331a565b60ff1983168652818601935061331a565b6132f08561328f565b60005b83811015613312578154818901526001820191506020810190506132f3565b838801955050505b50505092915050565b7f202d2d204e465420233a20000000000000000000000000000000000000000000600082015250565b6000613359600b83613238565b915061336482613323565b600b82019050919050565b600061337a8261265e565b6133848185613238565b935061339481856020860161267a565b80840191505092915050565b7f222c20226465736372697074696f6e223a202200000000000000000000000000600082015250565b60006133d6601383613238565b91506133e1826133a0565b601382019050919050565b7f222c2022696d616765223a2022697066733a2f2f000000000000000000000000600082015250565b6000613422601483613238565b915061342d826133ec565b601482019050919050565b7f227d000000000000000000000000000000000000000000000000000000000000600082015250565b600061346e600283613238565b915061347982613438565b600282019050919050565b600061348f8261326c565b915061349b82876132a4565b91506134a68261334c565b91506134b2828661336f565b91506134bd826133c9565b91506134c982856132a4565b91506134d482613415565b91506134e082846132a4565b91506134eb82613461565b915081905095945050505050565b7f646174613a6170706c69636174696f6e2f6a736f6e3b6261736536342c000000600082015250565b600061352f601d83613238565b915061353a826134f9565b601d82019050919050565b600061355082613522565b915061355c828461336f565b915081905092915050565b7f596f7520616c7265616479206c696b6564207468697320706f73740000000000600082015250565b600061359d601b83612669565b91506135a882613567565b602082019050919050565b600060208201905081810360008301526135cc81613590565b9050919050565b7f4e487b7100000000000000000000000000000000000000000000000000000000600052601160045260246000fd5b600061360d82612719565b91507fffffffffffffffffffffffffffffffffffffffffffffffffffffffffffffffff8214156136405761363f6135d3565b5b600182019050919050565b600060808201905061366060008301876127ae565b61366d6020830186612a73565b61367a6040830185612a73565b6136876060830184612634565b95945050505050565b600060608201905081810360008301526136aa81866126be565b90506136b96020830185612a73565b6136c660408301846127ae565b949350505050565b7f4552433732313a207472616e736665722066726f6d20696e636f72726563742060008201527f6f776e6572000000000000000000000000000000000000000000000000000000602082015250565b600061372a602583612669565b9150613735826136ce565b604082019050919050565b600060208201905081810360008301526137598161371d565b9050919050565b7f4552433732313a207472616e7366657220746f20746865207a65726f2061646460008201527f7265737300000000000000000000000000000000000000000000000000000000602082015250565b60006137bc602483612669565b91506137c782613760565b604082019050919050565b600060208201905081810360008301526137eb816137af565b9050919050565b7f4552433732313a20617070726f766520746f2063616c6c657200000000000000600082015250565b6000613828601983612669565b9150613833826137f2565b602082019050919050565b600060208201905081810360008301526138578161381b565b9050919050565b7f4552433732313a207472616e7366657220746f206e6f6e20455243373231526560008201527f63656976657220696d706c656d656e7465720000000000000000000000000000602082015250565b60006138ba603283612669565b91506138c58261385e565b604082019050919050565b600060208201905081810360008301526138e9816138ad565b9050919050565b7f4e487b7100000000000000000000000000000000000000000000000000000000600052601260045260246000fd5b600061392a82612719565b915061393583612719565b9250827fffffffffffffffffffffffffffffffffffffffffffffffffffffffffffffffff0382111561396a576139696135d3565b5b828201905092915050565b600061398082612719565b915061398b83612719565b92508261399b5761399a6138f0565b5b828204905092915050565b60006139b182612719565b91506139bc83612719565b9250817fffffffffffffffffffffffffffffffffffffffffffffffffffffffffffffffff04831182151516156139f5576139f46135d3565b5b828202905092915050565b6000613a0b82612719565b9150613a1683612719565b925082821015613a2957613a286135d3565b5b828203905092915050565b600081519050919050565b600082825260208201905092915050565b6000613a5b82613a34565b613a658185613a3f565b9350613a7581856020860161267a565b613a7e816126ad565b840191505092915050565b6000608082019050613a9e60008301876127ae565b613aab60208301866127ae565b613ab86040830185612a73565b8181036060830152613aca8184613a50565b905095945050505050565b600081519050613ae4816125cf565b92915050565b600060208284031215613b0057613aff612599565b5b6000613b0e84828501613ad5565b91505092915050565b7f4552433732313a206d696e7420746f20746865207a65726f2061646472657373600082015250565b6000613b4d602083612669565b9150613b5882613b17565b602082019050919050565b60006020820190508181036000830152613b7c81613b40565b9050919050565b7f4552433732313a20746f6b656e20616c7265616479206d696e74656400000000600082015250565b6000613bb9601c83612669565b9150613bc482613b83565b602082019050919050565b60006020820190508181036000830152613be881613bac565b905091905056fe416e204e465420772f20494420257320686173206265656e206d696e74656420746f2025734142434445464748494a4b4c4d4e4f505152535455565758595a6162636465666768696a6b6c6d6e6f707172737475767778797a303132333435363738392b2fa26469706673582212202453c95416c767fac8bc85a3b9f9c3fe4bba1d70c4972376f18b049537f675b964736f6c63430008090033",
  "linkReferences": {},
  "deployedLinkReferences": {}
}